{
  "contractName": "Faucet",
  "abi": [
    {
      "inputs": [],
      "name": "numOfFunders",
      "outputs": [
        {
          "internalType": "uint256",
          "name": "",
          "type": "uint256"
        }
      ],
      "stateMutability": "view",
      "type": "function",
      "constant": true
    },
    {
      "inputs": [],
      "name": "owner",
      "outputs": [
        {
          "internalType": "address",
          "name": "",
          "type": "address"
        }
      ],
      "stateMutability": "view",
      "type": "function",
      "constant": true
    },
    {
      "stateMutability": "payable",
      "type": "receive",
      "payable": true
    },
    {
      "inputs": [],
      "name": "emitLog",
      "outputs": [
        {
          "internalType": "bytes32",
          "name": "",
          "type": "bytes32"
        }
      ],
      "stateMutability": "pure",
      "type": "function",
      "constant": true
    },
    {
      "inputs": [],
      "name": "addFunds",
      "outputs": [],
      "stateMutability": "payable",
      "type": "function",
      "payable": true
    },
    {
      "inputs": [],
      "name": "test",
      "outputs": [],
      "stateMutability": "nonpayable",
      "type": "function"
    },
    {
      "inputs": [
        {
          "internalType": "uint256",
          "name": "withdrawAmount",
          "type": "uint256"
        }
      ],
      "name": "withdraw",
      "outputs": [],
      "stateMutability": "nonpayable",
      "type": "function"
    },
    {
      "inputs": [],
      "name": "getAllFunders",
      "outputs": [
        {
          "internalType": "address[]",
          "name": "",
          "type": "address[]"
        }
      ],
      "stateMutability": "view",
      "type": "function",
      "constant": true
    },
    {
      "inputs": [
        {
          "internalType": "uint8",
          "name": "index",
          "type": "uint8"
        }
      ],
      "name": "getFunderAtIndex",
      "outputs": [
        {
          "internalType": "address",
          "name": "",
          "type": "address"
        }
      ],
      "stateMutability": "view",
      "type": "function",
      "constant": true
    }
  ],
  "bytecode": "0x608060405234801561001057600080fd5b50336000806101000a81548173ffffffffffffffffffffffffffffffffffffffff021916908373ffffffffffffffffffffffffffffffffffffffff160217905550610a1b806100606000396000f3fe60806040526004361061007f5760003560e01c8063a26759cb1161004e578063a26759cb14610147578063af7f2c9b14610151578063f42c13bf1461017c578063f8a8fd6d146101a757610086565b80630a93cf331461008b5780632e1a7d4d146100c85780636fbbb55d146100f15780638da5cb5b1461011c57610086565b3661008657005b600080fd5b34801561009757600080fd5b506100b260048036038101906100ad9190610630565b6101be565b6040516100bf9190610751565b60405180910390f35b3480156100d457600080fd5b506100ef60048036038101906100ea9190610607565b6101fe565b005b3480156100fd57600080fd5b50610106610295565b604051610113919061076c565b60405180910390f35b34801561012857600080fd5b506101316103db565b60405161013e9190610751565b60405180910390f35b61014f6103ff565b005b34801561015d57600080fd5b5061016661051f565b60405161017391906107e9565b60405180910390f35b34801561018857600080fd5b50610191610525565b60405161019e919061078e565b60405180910390f35b3480156101b357600080fd5b506101bc61054d565b005b6000600360008360ff16815260200190815260200160002060009054906101000a900473ffffffffffffffffffffffffffffffffffffffff169050919050565b8067016345785d8a000081111561024a576040517f08c379a0000000000000000000000000000000000000000000000000000000008152600401610241906107c9565b60405180910390fd5b3373ffffffffffffffffffffffffffffffffffffffff166108fc839081150290604051600060405180830381858888f19350505050158015610290573d6000803e3d6000fd5b505050565b6060600060015467ffffffffffffffff8111156102db577f4e487b7100000000000000000000000000000000000000000000000000000000600052604160045260246000fd5b6040519080825280602002602001820160405280156103095781602001602082028036833780820191505090505b50905060005b6001548110156103d3576003600082815260200190815260200160002060009054906101000a900473ffffffffffffffffffffffffffffffffffffffff16828281518110610386577f4e487b7100000000000000000000000000000000000000000000000000000000600052603260045260246000fd5b602002602001019073ffffffffffffffffffffffffffffffffffffffff16908173ffffffffffffffffffffffffffffffffffffffff168152505080806103cb906108a1565b91505061030f565b508091505090565b60008054906101000a900473ffffffffffffffffffffffffffffffffffffffff1681565b6000339050600260008273ffffffffffffffffffffffffffffffffffffffff1673ffffffffffffffffffffffffffffffffffffffff16815260200190815260200160002060009054906101000a900460ff1661051c5760006001600081548092919061046a906108a1565b9190505590506001600260008473ffffffffffffffffffffffffffffffffffffffff1673ffffffffffffffffffffffffffffffffffffffff16815260200190815260200160002060006101000a81548160ff021916908315150217905550816003600083815260200190815260200160002060006101000a81548173ffffffffffffffffffffffffffffffffffffffff021916908373ffffffffffffffffffffffffffffffffffffffff160217905550505b50565b60015481565b60007f48656c6c6f20576f726c64000000000000000000000000000000000000000000905090565b60008054906101000a900473ffffffffffffffffffffffffffffffffffffffff1673ffffffffffffffffffffffffffffffffffffffff163373ffffffffffffffffffffffffffffffffffffffff16146105db576040517f08c379a00000000000000000000000000000000000000000000000000000000081526004016105d2906107a9565b60405180910390fd5b565b6000813590506105ec816109b7565b92915050565b600081359050610601816109ce565b92915050565b60006020828403121561061957600080fd5b6000610627848285016105dd565b91505092915050565b60006020828403121561064257600080fd5b6000610650848285016105f2565b91505092915050565b60006106658383610671565b60208301905092915050565b61067a8161084e565b82525050565b6106898161084e565b82525050565b600061069a82610814565b6106a4818561082c565b93506106af83610804565b8060005b838110156106e05781516106c78882610659565b97506106d28361081f565b9250506001810190506106b3565b5085935050505092915050565b6106f681610860565b82525050565b600061070960218361083d565b915061071482610919565b604082019050919050565b600061072c60238361083d565b915061073782610968565b604082019050919050565b61074b8161088a565b82525050565b60006020820190506107666000830184610680565b92915050565b60006020820190508181036000830152610786818461068f565b905092915050565b60006020820190506107a360008301846106ed565b92915050565b600060208201905081810360008301526107c2816106fc565b9050919050565b600060208201905081810360008301526107e28161071f565b9050919050565b60006020820190506107fe6000830184610742565b92915050565b6000819050602082019050919050565b600081519050919050565b6000602082019050919050565b600082825260208201905092915050565b600082825260208201905092915050565b60006108598261086a565b9050919050565b6000819050919050565b600073ffffffffffffffffffffffffffffffffffffffff82169050919050565b6000819050919050565b600060ff82169050919050565b60006108ac8261088a565b91507fffffffffffffffffffffffffffffffffffffffffffffffffffffffffffffffff8214156108df576108de6108ea565b5b600182019050919050565b7f4e487b7100000000000000000000000000000000000000000000000000000000600052601160045260246000fd5b7f4f6e6c79206f776e65722063616e2063616c6c20746869732066756e6374696f60008201527f6e00000000000000000000000000000000000000000000000000000000000000602082015250565b7f43616e6e6f74207769746864726177206d6f7265207468616e20302e3120657460008201527f6865720000000000000000000000000000000000000000000000000000000000602082015250565b6109c08161088a565b81146109cb57600080fd5b50565b6109d781610894565b81146109e257600080fd5b5056fea26469706673582212203893d111399a1eaa381b416d11ec35ccf74abaac9fcd3624c77e43eddae9aab164736f6c63430008040033",
  "immutableReferences": {},
  "source": "// SPDX-License-Identifier: MIT\r\npragma solidity >=0.4.22 <0.9.0;\r\nimport \"./Owned.sol\";\r\nimport \"./Logger.sol\";\r\nimport \"./IFaucet.sol\";\r\n\r\ncontract Faucet is Owned, Logger, IFaucet{\r\n    // External function are part of the contract interface\r\n    // which means they can be called via contracts and other tx\r\n    uint public numOfFunders;\r\n\r\n    mapping(address => bool) private funders;\r\n    mapping(uint => address) private lutFunders;\r\n\r\n    modifier limitWithdraw(uint withdrawAmount) {\r\n        require(withdrawAmount <= 100000000000000000, \"Cannot withdraw more than 0.1 ether\" );\r\n        _;\r\n    }\r\n\r\n    receive() external payable {}\r\n\r\n    function emitLog() public override pure returns(bytes32) {\r\n        return \"Hello World\";\r\n    }\r\n\r\n    function addFunds() external override payable {\r\n        // funders[index] = msg.sender;\r\n        address funder = msg.sender;\r\n\r\n        if (!funders[funder]) {\r\n            uint index = numOfFunders++;\r\n            funders[funder] = true;\r\n            lutFunders[index] = funder;\r\n        }\r\n    }\r\n\r\n    function test() external onlyOwner() {\r\n\r\n    }\r\n\r\n    function withdraw(uint withdrawAmount) external override limitWithdraw(withdrawAmount) {\r\n        payable(msg.sender).transfer(withdrawAmount);\r\n    }\r\n\r\n    function getAllFunders() external view returns (address[] memory) {\r\n        address[] memory _funders = new address[](numOfFunders);\r\n\r\n        for (uint256 index = 0; index < numOfFunders; index++) {\r\n            _funders[index] = lutFunders[index];\r\n        }\r\n\r\n        return _funders;\r\n    }\r\n\r\n    function getFunderAtIndex(uint8 index) external view returns (address){\r\n        return lutFunders[index];\r\n    }   \r\n    \r\n    // const instance = await Faucet.deployed()\r\n    // instance.addFunds({from: accounts[0], value:\"2000000000000000000\"})\r\n    // instance.addFunds({from: accounts[1], value:\"2000000000000000000\"})\r\n\r\n    // instance.withdraw(\"100000000000000000\", {from: accounts[1]})\r\n\r\n    // Pure, view modifiers - read-only call, no gas fee\r\n    // View - indicating that it won't alter the storage state\r\n    // Pure - stricter, indicating that it won't even read the storage state\r\n}",
  "sourcePath": "C:\\Users\\linke\\Desktop\\blockchain\\faucet\\contracts\\FaucetContract.sol",
  "compiler": {
    "name": "solc",
    "version": "0.8.4+commit.c7e474f2.Emscripten.clang"
  },
  "schemaVersion": "3.4.7",
  "updatedAt": "2022-05-09T16:11:39.890Z",
  "networkType": "ethereum",
  "devdoc": {
    "kind": "dev",
    "methods": {},
    "version": 1
  },
  "userdoc": {
    "kind": "user",
    "methods": {},
    "version": 1
  }
}